{
  "contractName": "Artifaqt",
  "abi": [
    {
      "constant": true,
      "inputs": [
        {
          "name": "interfaceID",
          "type": "bytes4"
        }
      ],
      "name": "supportsInterface",
      "outputs": [
        {
          "name": "",
          "type": "bool"
        }
      ],
      "payable": false,
      "stateMutability": "view",
      "type": "function"
    },
    {
      "constant": true,
      "inputs": [],
      "name": "name",
      "outputs": [
        {
          "name": "",
          "type": "string"
        }
      ],
      "payable": false,
      "stateMutability": "view",
      "type": "function"
    },
    {
      "constant": true,
      "inputs": [
        {
          "name": "_tokenId",
          "type": "uint256"
        }
      ],
      "name": "getApproved",
      "outputs": [
        {
          "name": "",
          "type": "address"
        }
      ],
      "payable": false,
      "stateMutability": "view",
      "type": "function"
    },
    {
      "constant": false,
      "inputs": [
        {
          "name": "_approved",
          "type": "address"
        },
        {
          "name": "_tokenId",
          "type": "uint256"
        }
      ],
      "name": "approve",
      "outputs": [],
      "payable": true,
      "stateMutability": "payable",
      "type": "function"
    },
    {
      "constant": true,
      "inputs": [],
      "name": "totalSupply",
      "outputs": [
        {
          "name": "",
          "type": "uint256"
        }
      ],
      "payable": false,
      "stateMutability": "view",
      "type": "function"
    },
    {
      "constant": true,
      "inputs": [
        {
          "name": "",
          "type": "address"
        }
      ],
      "name": "blocksplitWinnerMapping",
      "outputs": [
        {
          "name": "",
          "type": "bool"
        }
      ],
      "payable": false,
      "stateMutability": "view",
      "type": "function"
    },
    {
      "constant": false,
      "inputs": [
        {
          "name": "_from",
          "type": "address"
        },
        {
          "name": "_to",
          "type": "address"
        },
        {
          "name": "_tokenId",
          "type": "uint256"
        }
      ],
      "name": "transferFrom",
      "outputs": [],
      "payable": true,
      "stateMutability": "payable",
      "type": "function"
    },
    {
      "constant": true,
      "inputs": [
        {
          "name": "_owner",
          "type": "address"
        },
        {
          "name": "_index",
          "type": "uint256"
        }
      ],
      "name": "tokenOfOwnerByIndex",
      "outputs": [
        {
          "name": "_tokenId",
          "type": "uint256"
        }
      ],
      "payable": false,
      "stateMutability": "view",
      "type": "function"
    },
    {
      "constant": false,
      "inputs": [
        {
          "name": "_from",
          "type": "address"
        },
        {
          "name": "_to",
          "type": "address"
        },
        {
          "name": "_tokenId",
          "type": "uint256"
        }
      ],
      "name": "safeTransferFrom",
      "outputs": [],
      "payable": true,
      "stateMutability": "payable",
      "type": "function"
    },
    {
      "constant": true,
      "inputs": [
        {
          "name": "_index",
          "type": "uint256"
        }
      ],
      "name": "tokenByIndex",
      "outputs": [
        {
          "name": "",
          "type": "uint256"
        }
      ],
      "payable": false,
      "stateMutability": "view",
      "type": "function"
    },
    {
      "constant": false,
      "inputs": [],
      "name": "claimMasterPrize",
      "outputs": [],
      "payable": false,
      "stateMutability": "nonpayable",
      "type": "function"
    },
    {
      "constant": true,
      "inputs": [
        {
          "name": "_tokenId",
          "type": "uint256"
        }
      ],
      "name": "ownerOf",
      "outputs": [
        {
          "name": "",
          "type": "address"
        }
      ],
      "payable": false,
      "stateMutability": "view",
      "type": "function"
    },
    {
      "constant": true,
      "inputs": [],
      "name": "masterWinner",
      "outputs": [
        {
          "name": "",
          "type": "address"
        }
      ],
      "payable": false,
      "stateMutability": "view",
      "type": "function"
    },
    {
      "constant": true,
      "inputs": [
        {
          "name": "_owner",
          "type": "address"
        }
      ],
      "name": "balanceOf",
      "outputs": [
        {
          "name": "",
          "type": "uint256"
        }
      ],
      "payable": false,
      "stateMutability": "view",
      "type": "function"
    },
    {
      "constant": false,
      "inputs": [],
      "name": "withdrawEther",
      "outputs": [],
      "payable": false,
      "stateMutability": "nonpayable",
      "type": "function"
    },
    {
      "constant": false,
      "inputs": [
        {
          "name": "_to",
          "type": "address"
        },
        {
          "name": "_tokenType",
          "type": "uint256"
        }
      ],
      "name": "mintToken",
      "outputs": [],
      "payable": false,
      "stateMutability": "nonpayable",
      "type": "function"
    },
    {
      "constant": true,
      "inputs": [],
      "name": "blocksplitWinners",
      "outputs": [
        {
          "name": "",
          "type": "uint256"
        }
      ],
      "payable": false,
      "stateMutability": "view",
      "type": "function"
    },
    {
      "constant": true,
      "inputs": [],
      "name": "symbol",
      "outputs": [
        {
          "name": "",
          "type": "string"
        }
      ],
      "payable": false,
      "stateMutability": "view",
      "type": "function"
    },
    {
      "constant": true,
      "inputs": [
        {
          "name": "_player",
          "type": "address"
        }
      ],
      "name": "getTokenTypes",
      "outputs": [
        {
          "name": "",
          "type": "uint256[]"
        }
      ],
      "payable": false,
      "stateMutability": "view",
      "type": "function"
    },
    {
      "constant": false,
      "inputs": [
        {
          "name": "_operator",
          "type": "address"
        },
        {
          "name": "_approved",
          "type": "bool"
        }
      ],
      "name": "setApprovalForAll",
      "outputs": [],
      "payable": false,
      "stateMutability": "nonpayable",
      "type": "function"
    },
    {
      "constant": false,
      "inputs": [
        {
          "name": "_sinPayload",
          "type": "bytes32"
        }
      ],
      "name": "claimToken",
      "outputs": [],
      "payable": false,
      "stateMutability": "nonpayable",
      "type": "function"
    },
    {
      "constant": false,
      "inputs": [
        {
          "name": "_from",
          "type": "address"
        },
        {
          "name": "_to",
          "type": "address"
        },
        {
          "name": "_tokenId",
          "type": "uint256"
        },
        {
          "name": "data",
          "type": "bytes"
        }
      ],
      "name": "safeTransferFrom",
      "outputs": [],
      "payable": true,
      "stateMutability": "payable",
      "type": "function"
    },
    {
      "constant": true,
      "inputs": [
        {
          "name": "_tokenId",
          "type": "uint256"
        }
      ],
      "name": "tokenURI",
      "outputs": [
        {
          "name": "",
          "type": "string"
        }
      ],
      "payable": false,
      "stateMutability": "view",
      "type": "function"
    },
    {
      "constant": true,
      "inputs": [
        {
          "name": "",
          "type": "uint256"
        },
        {
          "name": "",
          "type": "uint256"
        }
      ],
      "name": "winnersPerChest",
      "outputs": [
        {
          "name": "",
          "type": "address"
        }
      ],
      "payable": false,
      "stateMutability": "view",
      "type": "function"
    },
    {
      "constant": false,
      "inputs": [
        {
          "name": "_resume",
          "type": "bool"
        }
      ],
      "name": "allowTransfer",
      "outputs": [],
      "payable": false,
      "stateMutability": "nonpayable",
      "type": "function"
    },
    {
      "constant": false,
      "inputs": [
        {
          "name": "_chestNum",
          "type": "uint256"
        }
      ],
      "name": "claimPrize",
      "outputs": [],
      "payable": false,
      "stateMutability": "nonpayable",
      "type": "function"
    },
    {
      "constant": true,
      "inputs": [
        {
          "name": "_tokenId",
          "type": "uint256"
        }
      ],
      "name": "getToken",
      "outputs": [
        {
          "name": "",
          "type": "uint256"
        },
        {
          "name": "",
          "type": "address"
        },
        {
          "name": "",
          "type": "uint256"
        }
      ],
      "payable": false,
      "stateMutability": "view",
      "type": "function"
    },
    {
      "constant": true,
      "inputs": [
        {
          "name": "_owner",
          "type": "address"
        },
        {
          "name": "_operator",
          "type": "address"
        }
      ],
      "name": "isApprovedForAll",
      "outputs": [
        {
          "name": "",
          "type": "bool"
        }
      ],
      "payable": false,
      "stateMutability": "view",
      "type": "function"
    },
    {
      "constant": true,
      "inputs": [],
      "name": "admin",
      "outputs": [
        {
          "name": "",
          "type": "address"
        }
      ],
      "payable": false,
      "stateMutability": "view",
      "type": "function"
    },
    {
      "inputs": [],
      "payable": false,
      "stateMutability": "nonpayable",
      "type": "constructor"
    },
    {
      "payable": true,
      "stateMutability": "payable",
      "type": "fallback"
    },
    {
      "anonymous": false,
      "inputs": [
        {
          "indexed": false,
          "name": "_value",
          "type": "uint256"
        }
      ],
      "name": "ToppedUp",
      "type": "event"
    },
    {
      "anonymous": false,
      "inputs": [
        {
          "indexed": true,
          "name": "_from",
          "type": "address"
        },
        {
          "indexed": true,
          "name": "_to",
          "type": "address"
        },
        {
          "indexed": true,
          "name": "_tokenId",
          "type": "uint256"
        }
      ],
      "name": "Transfer",
      "type": "event"
    },
    {
      "anonymous": false,
      "inputs": [
        {
          "indexed": true,
          "name": "_owner",
          "type": "address"
        },
        {
          "indexed": true,
          "name": "_approved",
          "type": "address"
        },
        {
          "indexed": true,
          "name": "_tokenId",
          "type": "uint256"
        }
      ],
      "name": "Approval",
      "type": "event"
    },
    {
      "anonymous": false,
      "inputs": [
        {
          "indexed": true,
          "name": "_owner",
          "type": "address"
        },
        {
          "indexed": true,
          "name": "_operator",
          "type": "address"
        },
        {
          "indexed": false,
          "name": "_approved",
          "type": "bool"
        }
      ],
      "name": "ApprovalForAll",
      "type": "event"
    }
  ],
  "bytecode": "0x6080604052600a805460a060020a60ff0219169055635c196bd8600d556000600e553480156200002e57600080fd5b50604080517f5a72696e736b69206674770000000000000000000000000000000000000000008152815190819003600b908101822081546001818101845560008481527f0175b7a638427703f0dbe7bb9bbf987a2551717b34e79f33b5b1008d1fa01db9928301939093557f4561676c6520657965000000000000000000000000000000000000000000000085528551948590036009018520845480830186558585528301557f43617264696f000000000000000000000000000000000000000000000000000085528551948590036006018520845480830186558585528301557f4465772064726f7073206f7220657965733f000000000000000000000000000085528551948590036012018520845480830186558585528301557f50726574747920666172206f75742c206d616e0000000000000000000000000085528551948590036013018520845491820185559383520191909155600a8054600160a060020a0319163317905581830190925260118082527f426c6f636b636f6e662e696f2032303139000000000000000000000000000000602092909201918252620001db92919062000229565b5060408051808201909152600c8082527f626c6f636b636f6e662e696f00000000000000000000000000000000000000006020909201918252620002229160019162000229565b50620002ce565b828054600181600116156101000203166002900490600052602060002090601f016020900481019282601f106200026c57805160ff19168380011785556200029c565b828001600101855582156200029c579182015b828111156200029c5782518255916020019190600101906200027f565b50620002aa929150620002ae565b5090565b620002cb91905b80821115620002aa5760008155600101620002b5565b90565b6120be80620002de6000396000f3006080604052600436106101745763ffffffff7c010000000000000000000000000000000000000000000000000000000060003504166301ffc9a781146101a957806306fdde03146101f4578063081812fc1461027e578063095ea7b3146102b257806318160ddd146102cb5780631e00658a146102f257806323b872dd146103135780632f745c591461033057806342842e0e146103545780634f6ccce71461037157806352b5c7ee146103895780636352211e1461039e5780636caf419a146103b657806370a08231146103cb5780637362377b146103ec57806379c650681461040157806391f009cf1461042557806395d89b411461043a57806397de8db01461044f578063a22cb465146104c0578063a5bfa9a9146104e6578063b88d4fde146104fe578063c87b56dd14610560578063cbd7a6b814610578578063d4cab60d14610593578063d7098154146105ad578063e4b50cb8146105c5578063e985e9c514610603578063f851a4401461062a575b6040805134815290517f60c6b9906c64e9e2aa5fc860e22f00a1cb2c959162c4a26eb3b36c9d508293069181900360200190a1005b3480156101b557600080fd5b506101e07bffffffffffffffffffffffffffffffffffffffffffffffffffffffff196004351661063f565b604080519115158252519081900360200190f35b34801561020057600080fd5b5061020961072b565b6040805160208082528351818301528351919283929083019185019080838360005b8381101561024357818101518382015260200161022b565b50505050905090810190601f1680156102705780820380516001836020036101000a031916815260200191505b509250505060405180910390f35b34801561028a57600080fd5b506102966004356107b9565b60408051600160a060020a039092168252519081900360200190f35b6102c9600160a060020a03600435166024356107fb565b005b3480156102d757600080fd5b506102e0610861565b60408051918252519081900360200190f35b3480156102fe57600080fd5b506101e0600160a060020a0360043516610868565b6102c9600160a060020a036004358116906024351660443561087d565b34801561033c57600080fd5b506102e0600160a060020a03600435166024356108b6565b6102c9600160a060020a0360043581169060243516604435610955565b34801561037d57600080fd5b506102e0600435610989565b34801561039557600080fd5b506102c96109ba565b3480156103aa57600080fd5b50610296600435610cc5565b3480156103c257600080fd5b50610296610d07565b3480156103d757600080fd5b506102e0600160a060020a0360043516610d16565b3480156103f857600080fd5b506102c9610d49565b34801561040d57600080fd5b506102c9600160a060020a0360043516602435610d9a565b34801561043157600080fd5b506102e0610e16565b34801561044657600080fd5b50610209610e1c565b34801561045b57600080fd5b50610470600160a060020a0360043516610e76565b60408051602080825283518183015283519192839290830191858101910280838360005b838110156104ac578181015183820152602001610494565b505050509050019250505060405180910390f35b3480156104cc57600080fd5b506102c9600160a060020a03600435166024351515610f4a565b3480156104f257600080fd5b506102c9600435610fce565b604080516020601f6064356004818101359283018490048402850184019095528184526102c994600160a060020a03813581169560248035909216956044359536956084940191819084018382808284375094975061123c9650505050505050565b34801561056c57600080fd5b50610209600435611277565b34801561058457600080fd5b50610296600435602435611318565b34801561059f57600080fd5b506102c9600435151561134f565b3480156105b957600080fd5b506102c96004356113b0565b3480156105d157600080fd5b506105dd6004356115da565b60408051938452600160a060020a03909216602084015282820152519081900360600190f35b34801561060f57600080fd5b506101e0600160a060020a036004358116906024351661160d565b34801561063657600080fd5b5061029661163b565b60007bffffffffffffffffffffffffffffffffffffffffffffffffffffffff1982167f80ac58cd0000000000000000000000000000000000000000000000000000000014806106cc57507bffffffffffffffffffffffffffffffffffffffffffffffffffffffff1982167f5b5e139f00000000000000000000000000000000000000000000000000000000145b8061071557507bffffffffffffffffffffffffffffffffffffffffffffffffffffffff1982167f780e9d6300000000000000000000000000000000000000000000000000000000145b1561072257506001610726565b5060005b919050565b6000805460408051602060026001851615610100026000190190941693909304601f810184900484028201840190925281815292918301828280156107b15780601f10610786576101008083540402835291602001916107b1565b820191906000526020600020905b81548152906001019060200180831161079457829003601f168201915b505050505081565b6000818152600560205260408120548290600160a060020a031615156107de57600080fd5b5050600090815260076020526040902054600160a060020a031690565b6000818152600560205260408120548290600160a060020a0316151561082057600080fd5b8261082a8161164a565b151561083557600080fd5b600084815260056020526040902054600160a060020a0316925061085a8386866116a1565b5050505050565b6002545b90565b600f6020526000908152604090205460ff1681565b600a5474010000000000000000000000000000000000000000900460ff1615156108a657600080fd5b6108b1838383611759565b505050565b600080805260056020527f05b8ccbb9d4d8fb16ea74ce3c29a41f1b461fbdaff4714a0d9a8eb05499746bc548190600160a060020a031615156108f857600080fd5b600160a060020a038416600090815260046020526040902054831061091c57600080fd5b600160a060020a038416600090815260046020526040902080548490811061094057fe5b906000526020600020015491505b5092915050565b600a5474010000000000000000000000000000000000000000900460ff16151561097e57600080fd5b6108b1838383611805565b600254600090821061099a57600080fd5b60028054839081106109a857fe5b90600052602060002001549050919050565b6109c5336000611998565b1515600114610a3557604080517f08c379a000000000000000000000000000000000000000000000000000000000815260206004820152601660248201527f55736572206d757374206861766520746f6b656e203000000000000000000000604482015290519081900360640190fd5b610a40336001611998565b1515600114610ab057604080517f08c379a000000000000000000000000000000000000000000000000000000000815260206004820152601660248201527f55736572206d757374206861766520746f6b656e203100000000000000000000604482015290519081900360640190fd5b610abb336002611998565b1515600114610b2b57604080517f08c379a000000000000000000000000000000000000000000000000000000000815260206004820152601660248201527f55736572206d757374206861766520746f6b656e203200000000000000000000604482015290519081900360640190fd5b610b36336003611998565b1515600114610ba657604080517f08c379a000000000000000000000000000000000000000000000000000000000815260206004820152601660248201527f55736572206d757374206861766520746f6b656e203300000000000000000000604482015290519081900360640190fd5b610bb1336004611998565b1515600114610c2157604080517f08c379a000000000000000000000000000000000000000000000000000000000815260206004820152601660248201527f55736572206d757374206861766520746f6b656e203400000000000000000000604482015290519081900360640190fd5b6011805473ffffffffffffffffffffffffffffffffffffffff191633908117909155610c4e906001611a22565b670de0b6b3a7640000303110610c94576040513390600090670de0b6b3a76400009082818181858883f19350505050158015610c8e573d6000803e3d6000fd5b50610cc3565b6040513390303180156108fc02916000818181858888f19350505050158015610cc1573d6000803e3d6000fd5b505b565b6000818152600560205260408120548290600160a060020a03161515610cea57600080fd5b5050600090815260056020526040902054600160a060020a031690565b601154600160a060020a031681565b6000600160a060020a0382161515610d2d57600080fd5b50600160a060020a031660009081526004602052604090205490565b600a54600160a060020a03163314610d6057600080fd5b600a54604051600160a060020a0390911690303180156108fc02916000818181858888f19350505050158015610cc1573d6000803e3d6000fd5b600a54600090600160a060020a03163314610db457600080fd5b600d54421115610dc357600080fd5b610dcb610861565b9050610dd8838284611a98565b8083600160a060020a031660007fddf252ad1be2c89b69c2b068fc378daa952ba7f163c4a11628f55a4df523b3ef60405160405180910390a4505050565b600e5481565b60018054604080516020600284861615610100026000190190941693909304601f810184900484028201840190925281815292918301828280156107b15780601f10610786576101008083540402835291602001916107b1565b600160a060020a03811660009081526004602090815260408083205481518181528184028101909301909152606092839290918015610ebf578160200160208202803883390190505b509150600090505b600160a060020a03841660009081526004602052604090205481101561094e57600160a060020a03841660009081526004602052604081208054600c92919084908110610f1057fe5b90600052602060002001548152602001908152602001600020548282815181101515610f3857fe5b60209081029091010152600101610ec7565b600160a060020a038216331415610f6057600080fd5b336000818152600860209081526040808320600160a060020a03871680855290835292819020805460ff1916861515908117909155815190815290519293927f17307eab39ab6107e8899845ad3d59bd9653f200f220920489ca2b5937696c31929181900390910190a35050565b600080600080600d544211151515610fe557600080fd5b60009250600091505b60058210156110be57600b80548390811061100557fe5b6000918252602091829020015460408051808401929092526c010000000000000000000000003302828201528051603481840301815260549092019081905281519192909182918401908083835b602083106110725780518252601f199092019160209182019101611053565b5181516020939093036101000a6000190180199091169216919091179052604051920182900390912088141592506110b391505057819350600192506110be565b600190910190610fee565b60018315151461115557604080517f08c379a000000000000000000000000000000000000000000000000000000000815260206004820152602660248201527f5061796c6f616420646f6573206e6f74206d6174636820617661696c61626c6560448201527f20746f6b656e0000000000000000000000000000000000000000000000000000606482015290519081900360840190fd5b61115f3385611998565b156111f157604080517f08c379a000000000000000000000000000000000000000000000000000000000815260206004820152602160248201527f55736572206d757374206e6f742068617665207468697320746f6b656e20796560448201527f7400000000000000000000000000000000000000000000000000000000000000606482015290519081900360840190fd5b6111f9610861565b9050611206338286611a98565b604051819033906000907fddf252ad1be2c89b69c2b068fc378daa952ba7f163c4a11628f55a4df523b3ef908290a45050505050565b600a5474010000000000000000000000000000000000000000900460ff16151561126557600080fd5b61127184848484611ab5565b50505050565b60008181526009602090815260409182902080548351601f600260001961010060018616150201909316929092049182018490048402810184019094528084526060939283018282801561130c5780601f106112e15761010080835404028352916020019161130c565b820191906000526020600020905b8154815290600101906020018083116112ef57829003601f168201915b50505050509050919050565b60106020528160005260406000208181548110151561133357fe5b600091825260209091200154600160a060020a03169150829050565b600a54600160a060020a0316331461136657600080fd5b600a805491151574010000000000000000000000000000000000000000027fffffffffffffffffffffff00ffffffffffffffffffffffffffffffffffffffff909216919091179055565b60008060006113bf3385611998565b151560011461142f57604080517f08c379a000000000000000000000000000000000000000000000000000000000815260206004820152601960248201527f55736572206d7573742068617665207468697320746f6b656e00000000000000604482015290519081900360640190fd5b61143a336000611a22565b600084815260106020526040812054935091505b828260ff16101561152c576000848152601060205260409020805433919060ff851690811061147957fe5b600091825260209091200154600160a060020a0316141561152157604080517f08c379a000000000000000000000000000000000000000000000000000000000815260206004820152602f60248201527f57696e6e6572206d757374206e6f7420616c7265616479206861766520636c6160448201527f696d656420746869732063686573740000000000000000000000000000000000606482015290519081900360840190fd5b81600101915061144e565b50600082151561154157506706f05b59d3b200005b600083111561155557506703782dace9d900005b600081118015611566575030318111155b1561159a57604051339082156108fc029083906000818181858888f19350505050158015611598573d6000803e3d6000fd5b505b505050600090815260106020908152604082208054600181018255908352912001805473ffffffffffffffffffffffffffffffffffffffff191633179055565b6000908152600360209081526040808320546005835281842054600c9093529220549192600160a060020a039091169190565b600160a060020a03918216600090815260086020908152604080832093909416825291909152205460ff1690565b600a54600160a060020a031681565b600081815260056020526040812054600160a060020a031633148061169b5750600082815260056020908152604080832054600160a060020a031683526008825280832033845290915290205460ff165b92915050565b600160a060020a0382811690841614156116ba57600080fd5b600081815260076020526040902054600160a060020a03161580156116e65750600160a060020a038216155b156116f057600080fd5b600081815260076020526040808220805473ffffffffffffffffffffffffffffffffffffffff1916600160a060020a0386811691821790925591518493918716917f8c5be1e5ebec7d5bd14f71427d1e84f3dd0314c0f7b2291e5b200ac8c7c3b92591a4505050565b6000818152600560205260409020548190600160a060020a0316151561177e57600080fd5b83838361178a8161164a565b806117ab5750600081815260076020526040902054600160a060020a031633145b15156117b657600080fd5b600081815260056020526040902054600160a060020a038481169116146117dc57600080fd5b600160a060020a03821615156117f157600080fd5b6117fc878787611d08565b50505050505050565b6000818152600560205260408120548290600160a060020a0316151561182a57600080fd5b8484846118368161164a565b806118575750600081815260076020526040902054600160a060020a031633145b151561186257600080fd5b600081815260056020526040902054600160a060020a0384811691161461188857600080fd5b600160a060020a038216151561189d57600080fd5b6118a8888888611d08565b863b9450600085111561198e57604080517f150b7a0200000000000000000000000000000000000000000000000000000000808252336004830152600160a060020a038b81166024840152604483018a90526080606484015260006084840181905293519193908b169263150b7a029260c48083019360209383900390910190829087803b15801561193957600080fd5b505af115801561194d573d6000803e3d6000fd5b505050506040513d602081101561196357600080fd5b50517bffffffffffffffffffffffffffffffffffffffffffffffffffffffff19161461198e57600080fd5b5050505050505050565b6000805b600160a060020a038416600090815260046020526040902054811015611a1857600160a060020a038416600090815260046020526040812080548592600c929091859081106119e757fe5b90600052602060002001548152602001908152602001600020541415611a10576001915061094e565b60010161199c565b5060009392505050565b6006600e54108015611a32575080155b80611a3a5750805b8015611a5f5750600160a060020a0382166000908152600f602052604090205460ff16155b15611a9457600e80546001908101909155600160a060020a0383166000908152600f60205260409020805460ff191690911790555b5050565b611aa28383611d8b565b6000918252600c60205260409091205550565b6000828152600560205260408120548390600160a060020a03161515611ada57600080fd5b858585611ae68161164a565b80611b075750600081815260076020526040902054600160a060020a031633145b1515611b1257600080fd5b600081815260056020526040902054600160a060020a03848116911614611b3857600080fd5b600160a060020a0382161515611b4d57600080fd5b611b58898989611d08565b873b94506000851115611cfd5763150b7a027c0100000000000000000000000000000000000000000000000000000000027bffffffffffffffffffffffffffffffffffffffffffffffffffffffff191688600160a060020a031663150b7a02338c8b8b6040518563ffffffff167c01000000000000000000000000000000000000000000000000000000000281526004018085600160a060020a0316600160a060020a0316815260200184600160a060020a0316600160a060020a0316815260200183815260200180602001828103825283818151815260200191508051906020019080838360005b83811015611c59578181015183820152602001611c41565b50505050905090810190601f168015611c865780820380516001836020036101000a031916815260200191505b5095505050505050602060405180830381600087803b158015611ca857600080fd5b505af1158015611cbc573d6000803e3d6000fd5b505050506040513d6020811015611cd257600080fd5b50517bffffffffffffffffffffffffffffffffffffffffffffffffffffffff191614611cfd57600080fd5b505050505050505050565b600081815260076020526040902054600160a060020a031615611d3157611d31836000836116a1565b611d3b8382611e39565b611d458282611d8b565b8082600160a060020a031684600160a060020a03167fddf252ad1be2c89b69c2b068fc378daa952ba7f163c4a11628f55a4df523b3ef60405160405180910390a4505050565b60028054600181810183557f405787fa12a823e0f2b7631cc41b3ba8828b3321ca811111fa75cd3aa3bb5ace909101839055905460008381526003602090815260408083206000199485019055600582528083208054600160a060020a0390981673ffffffffffffffffffffffffffffffffffffffff199098168817905595825260048152858220805494850181558083528183209094018590559254938152600690925292902091019055565b6000818152600360205260408120546002805491929081906000198401848110611e5f57fe5b9060005260206000200154600285815481101515611e7957fe5b90600052602060002001819055508360036000600260018703815481101515611e9e57fe5b9060005260206000200154815260200190815260200160002081905550600260018403815481101515611ecd57fe5b6000918252602082200155600280546000190190611eeb9082612055565b505050600083815260066020908152604080832054600160a060020a038816845260049092529091208054906000198201828110611f2557fe5b6000918252602080832090910154600160a060020a038916835260049091526040909120805484908110611f5557fe5b90600052602060002001819055508160066000600460008a600160a060020a0316600160a060020a0316815260200190815260200160002060018503815481101515611f9d57fe5b90600052602060002001548152602001908152602001600020819055506004600087600160a060020a0316600160a060020a0316815260200190815260200160002060018203815481101515611fef57fe5b60009182526020808320909101829055600160a060020a03881682526004905260409020805460001901906120249082612055565b50505060009283525050600560205260409020805473ffffffffffffffffffffffffffffffffffffffff1916905550565b8154818355818111156108b1576000838152602090206108b191810190830161086591905b8082111561208e576000815560010161207a565b50905600a165627a7a723058209d132573e13e067796fb02991233d6f8ce237f14a11fc3c7f390c0df5962a25f0029",
  "source": "pragma solidity 0.4.24;\n\nimport \"./../eip721/EIP721.sol\";\n\n\ncontract Artifaqt is EIP721 {\n    address public admin;\n\n    // Bool to pause transfers\n    bool transferResumed = false;\n\n    // Array holding the sin hashes\n    bytes32[] private sins;\n\n    // Mapping from token ID to token type\n    mapping(uint256 => uint256) internal typeOfToken;\n\n    // Cutoff minting time\n    uint256 cutoffMintingTime = 1545169880;\n\n    event ToppedUp(uint256 _value);\n\n    uint256 public blocksplitWinners = 0;\n    mapping (address => bool) public blocksplitWinnerMapping;\n    mapping (uint256 => address[]) public winnersPerChest;\n\n    address public masterWinner;\n\n    /// @notice Contract constructor\n    /// @dev Generates the keccak256 hashes of each sin that will be used\n    /// when claiming tokens. Saves the admin. Sets a name and symbol.\n    constructor() public {\n        // Nothing at all\n        // sins.push(keccak256(\"Empty slot to satisfy the gods of zero-indexing\"));\n        // Battle Axe\n        sins.push(keccak256(\"Zrinski ftw\"));\n        // Feathered Overseer\n        sins.push(keccak256(\"Eagle eye\"));\n        // Resurrector\n        sins.push(keccak256(\"Cardio\"));\n        // Frog Rose\n        sins.push(keccak256(\"Dew drops or eyes?\"));\n        // Major Tom\n        sins.push(keccak256(\"Pretty far out, man\"));\n\n        // Set owner\n        admin = msg.sender;\n\n        // Default name and symbol\n        name = \"Blockconf.io 2019\";\n        symbol = \"blockconf.io\";\n    }\n\n    /// @notice Claim tokens by providing the sin payload\n    /// @dev Reverts unless the payload was correctly created. Reverts after the party is over and no more tokens should be created.\n    /// @param _sinPayload = keccak256(keccak256(sin) + playerAddress)\n    /// sin must be one of strings hashed in the constructor that the player will find scattered across the DevCon4 conference\n    function claimToken(\n        bytes32 _sinPayload\n    ) external mintingAllowed {\n        // Make sure it's the correct sin\n        uint256 tokenType;\n        bool found = false;\n        for(uint256 i = 0; i < 5; i++) {\n            if (_sinPayload == keccak256(abi.encodePacked(sins[i], msg.sender))) {\n                tokenType = i;\n                found = true;\n                break;\n            }\n        }\n        require(found == true, \"Payload does not match available token\");\n\n        // Make sure the user does not have this type of token\n        require(ownerHasTokenType(msg.sender, tokenType) == false, \"User must not have this token yet\");\n\n        // Create and add token\n        uint256 tokenId = totalSupply();\n        addToken(msg.sender, tokenId, tokenType);\n\n        // Emit create event\n        emit Transfer(0x0, msg.sender, tokenId);\n    }\n\n    /// @notice The admin can generate tokens for players\n    /// @dev Reverts unless the user already has the token type. Reverts unless the minting happens withing the minting allowed time period.\n    /// @param _to The player's address\n    /// @param _tokenType A number from 0 to 4 representing the item type\n    function mintToken(\n        address _to,\n        uint256 _tokenType\n    ) external onlyAdmin mintingAllowed {\n        // Create and add token\n        uint256 tokenId = totalSupply();\n        addToken(_to, tokenId, _tokenType);\n\n        // Emit create event\n        emit Transfer(0x0, _to, tokenId);\n    }\n\n    /// @notice Returns the token id, owner and type\n    /// @dev Throws unless _tokenId exists\n    /// @param _tokenId The token by id\n    /// @return\n    /// - token index\n    /// - owner of token\n    /// - type of token\n    function getToken(\n        uint256 _tokenId\n    ) external view returns (uint256, address, uint256) {\n        return (\n            allTokensIndex[_tokenId],\n            ownerOfToken[_tokenId],\n            typeOfToken[_tokenId]\n        );\n    }\n\n    /// @notice Returns the claimed tokens for player\n    /// @dev Returns an empty array if player does not have any claimed tokens\n    /// @param _player The player's address\n    function getTokenTypes(\n        address _player\n    ) external view returns (uint256[]) {\n        uint256[] memory claimedTokens = new uint256[](ownedTokens[_player].length);\n\n        for (uint256 i = 0; i < ownedTokens[_player].length; i++) {\n            claimedTokens[i] = typeOfToken[ownedTokens[_player][i]];\n        }\n\n        return claimedTokens;\n    }\n\n    function () public payable {\n        emit ToppedUp(msg.value);\n    }\n\n    function withdrawEther() external onlyAdmin {\n        admin.transfer(address(this).balance);\n    }\n\n    function claimPrize(uint256 _chestNum) external {\n        require(ownerHasTokenType(msg.sender, _chestNum) == true, \"User must have this token\");\n        \n        giveBlocksplit(msg.sender, false);\n        uint256 winnersForChest = winnersPerChest[_chestNum].length;\n\n        for (uint8 i = 0; i < winnersForChest; i = i + 1) {\n            require (winnersPerChest[_chestNum][i] != msg.sender, \"Winner must not already have claimed this chest\");\n        }\n        \n        uint256 prize = 0;\n        if (winnersForChest == 0) {\n            prize = 0.5 ether;\n        }\n        if (winnersForChest > 0) {\n            prize = 0.25 ether;\n        }\n\n        if (prize > 0 && address(this).balance >= prize) {\n            address(msg.sender).transfer(prize);\n        }\n\n        winnersPerChest[_chestNum].push(msg.sender);\n    }\n\n    function claimMasterPrize() external {\n        require(ownerHasTokenType(msg.sender, 0) == true, \"User must have token 0\");\n        require(ownerHasTokenType(msg.sender, 1) == true, \"User must have token 1\");\n        require(ownerHasTokenType(msg.sender, 2) == true, \"User must have token 2\");\n        require(ownerHasTokenType(msg.sender, 3) == true, \"User must have token 3\");\n        require(ownerHasTokenType(msg.sender, 4) == true, \"User must have token 4\");\n\n        masterWinner = msg.sender;\n\n        giveBlocksplit(msg.sender, true);\n        if (address(this).balance >= 1 ether) {\n            address(msg.sender).transfer(1 ether);\n        } else {\n            address(msg.sender).transfer(address(this).balance);\n        }\n    }\n\n    function giveBlocksplit(address _beneficiary, bool _masterprize) internal {\n        if (((blocksplitWinners < 6 && !_masterprize) || _masterprize) && blocksplitWinnerMapping[_beneficiary] == false) {\n            blocksplitWinners = blocksplitWinners + 1;\n            blocksplitWinnerMapping[_beneficiary] = true;\n        }\n    }\n\n    // TODO: Do not allow any kind of transfers if transfer is paused\n    /// @notice Transfers the ownership of a token\n    /// @dev Calls the parent function if transfers are not paused\n    /// @param _from The current owner of the NFT\n    /// @param _to The new owner\n    /// @param _tokenId The NFT to transfer\n    /// @param data Additional data with no specified format, sent in call to `_to`\n    function safeTransferFrom(\n        address _from, \n        address _to, \n        uint256 _tokenId, \n        bytes data\n    ) public payable transferAllowed {\n        super.safeTransferFrom(_from, _to, _tokenId, data);\n    }\n\n    /// @notice Transfers the ownership of an NFT from one address to another address\n    /// @dev Calls the parent function if transfers are not paused\n    /// @param _from The current owner of the NFT\n    /// @param _to The new owner\n    /// @param _tokenId The NFT to transfer\n    function safeTransferFrom(\n        address _from, \n        address _to, \n        uint256 _tokenId\n    ) public payable transferAllowed {\n        super.safeTransferFrom(_from, _to, _tokenId);\n    }\n\n    /// @notice Transfer ownership of an NFT -- THE CALLER IS RESPONSIBLE\n    ///  TO CONFIRM THAT `_to` IS CAPABLE OF RECEIVING NFTS OR ELSE\n    ///  THEY MAY BE PERMANENTLY LOST\n    /// @dev Calls the parent function if transfers are not paused\n    /// @param _from The current owner of the NFT\n    /// @param _to The new owner\n    /// @param _tokenId The NFT to transfer\n    function transferFrom(\n        address _from, \n        address _to, \n        uint256 _tokenId\n    ) public payable transferAllowed {\n        super.transferFrom(_from, _to, _tokenId);\n    }\n\n    /// @notice Enables or disables transfers\n    /// @dev Set to `true` to enable transfers or `false` to disable transfers. \n    /// If it is set to `false` all functions that transfer tokens are paused and will revert.\n    /// Functions that approve transfers (`approve()` and `setTransferForAll()`) still work \n    /// because they do not transfer tokens immediately.\n    /// @param _resume This should be set to `true` if transfers should be enabled, `false` otherwise\n    function allowTransfer(bool _resume) public onlyAdmin {\n        transferResumed = _resume;\n    }\n\n    /// @notice Returns true of the `_player` has the requested `_tokenType`\n    /// @dev\n    /// @param _player The player's address\n    /// @param _tokenType A number from 0 to 8 representing the sin type\n    function ownerHasTokenType(\n        address _player,\n        uint256 _tokenType\n    ) internal view returns (bool) {\n        for (uint256 i = 0; i < ownedTokens[_player].length; i++) {\n            if (typeOfToken[ownedTokens[_player][i]] == _tokenType) {\n                return true;\n            }\n        }\n        return false;\n    }\n\n    /// @notice Adds a token for the player\n    /// @dev Calls the `super.addToken(address _to, uint256 _tokenId)` method and\n    /// saves the token type also. The `_tokenId` must not already exist.\n    /// @param _to The player's address\n    /// @param _tokenId The new token id\n    /// @param _tokenType A number from 0 to 8 representing the sin type\n    function addToken(\n        address _to,\n        uint256 _tokenId,\n        uint256 _tokenType\n    ) internal {\n        super.addToken(_to, _tokenId);\n\n        // Save token type\n        typeOfToken[_tokenId] = _tokenType;\n    }\n\n    modifier onlyAdmin() {\n        require(msg.sender == admin);\n        _;\n    }\n\n    modifier mintingAllowed() {\n        require(block.timestamp <= cutoffMintingTime);\n        _;\n    }\n\n    modifier transferAllowed() {\n        require(transferResumed);\n        _;\n    }\n}",
  "sourcePath": "/Users/swader/repos/artifaqt/contract/contracts/artifaqt/Artifaqt.sol",
  "compiler": {
    "name": "solc",
    "version": "0.4.24+commit.e67f0147.Emscripten.clang"
  },
  "schemaVersion": "2.0.1",
  "updatedAt": "2018-12-15T01:13:01.046Z"
}